:1000000012C0CBC3F1C329C028C027C026C025C059
:1000100024C04FC022C021C020C01FC01EC01DC0B0
:100020001CC01BC01AC011241FBECFE5D4E0DEBF28
:10003000CDBF11E0A0E6B0E0E0E0F8E002C005903E
:100040000D92A23BB107D9F711E0A2EBB1E001C0DC
:100050001D92A93BB107E1F701C0D2CFCFE5D4E0B3
:10006000DEBFCDBF12BA11BA10BE88E488B991E0E4
:1000700093BF82E08EBD87E085BD18BA8FEF87BB46
:1000800084E58DB99EB98AE085BF80EC8BBF88E19D
:1000900081BD8FE081BD7894A89585B78F7885BFA5
:1000A00085B7806885BF889585B78F7785BFA89508
:1000B000F7CF1F920F920FB60F9211242F938F93A9
:1000C0009F93AF93BF93CF93DF93EF93FF9389B742
:1000D0008E7F89BF2091B401822F8952873008F02A
:1000E000ACC01EB88BE1289FF0011124E359F44005
:1000F000F093B301E093B2018EE0289FC001112478
:100100008B5692409093B7018093B60180E881BBF3
:1001100080916000EE56FF4FE80FF11D80818FB98E
:10012000779BFECF80916100E091B601F091B7011D
:10013000E15BFE4FE80FF11D80818FB9779BFECF09
:1001400080916200A091B201B091B301FD01EE5621
:10015000FF4FE80FF11D80818FB9779BFECF809113
:100160006300FD01EE56FF4FE80FF11D80818FB94E
:10017000779BFECF80916400FD01EE56FF4FE80FA4
:10018000F11D80818FB9779BFECF80916500FD01C5
:10019000EE56FF4FE80FF11D80818FB9779BFECFA0
:1001A00080916600FD01EE56FF4FE80FF11D808142
:1001B0008FB9779BFECF80916700FD01EE56FF4F10
:1001C000E80FF11D80818FB9779BFECF8091680089
:1001D000FD01EE56FF4FE80FF11D80818FB9779B2F
:1001E000FECF80916900FD01EE56FF4FE80FF11D33
:1001F00080818FB9779BFECF80916A00FD01EE561A
:10020000FF4FE80FF11D80818FB9779BFECF809162
:100210006B00FD01EE56FF4FE80FF11D80818FB995
:10022000779BFECF80916C00AE56BF4FA80FB11DDB
:100230008C918FB9779BFECF11BA822F8D5D87305D
:1002400008F0DDC08BE1289FF0011124EF58F74141
:10025000F093B301E093B2018EE0289FC001112416
:1002600083549C409093B7018093B60181E08EB98E
:1002700080E881BBEB51FF4F80818FB9779BFECF28
:10028000A091B601B091B701FD01E15BFE4F82ADD7
:100290008FB9779BFECF80916E00FD01E15BFE4F31
:1002A000E80FF11D80818FB9779BFECF80916F00A1
:1002B000FD01E15BFE4FE80FF11D80818FB9779B57
:1002C000FECF80917100FD01E15BFE4FE80FF11D53
:1002D00080818FB9779BFECFC091B201D091B301DD
:1002E000FE01EE52FF4F80818FB9779BFECFFE015A
:1002F000E652FF4F80818FB9779BFECFFD01E15B16
:10030000FE4F82AD8FB9779BFECF80917100FD01CA
:10031000E15BFE4FE80FF11D80818FB9779BFECF27
:1003200080917200FD01E15BFE4FE80FF11D8081BD
:100330008FB9779BFECF80917400FD01E15BFE4F8A
:10034000E80FF11D80818FB9779BFECF81E08EB9D8
:10035000FE01EE52FF4F80818FB9779BFECFCD52C9
:10036000DF4F88818FB9779BFECFFD01E15BFE4FA8
:1003700082AD8FB9779BFECF1EB880917400FD01CE
:10038000E15BFE4FE80FF11D80818FB9779BFECFB7
:1003900080917500FD01E15BFE4FE80FF11D80814A
:1003A0008FB9779BFECF80917600FD01E15BFE4F18
:1003B000E80FF11D80818FB9779BFECF8091770088
:1003C000FD01E15BFE4FE80FF11D80818FB9779B46
:1003D000FECF80917800FD01E15BFE4FE80FF11D3B
:1003E00080818FB9779BFECF80917900A15BBE4F52
:1003F000A80FB11D8C918FB9779BFECF11BA822FB8
:10040000875E873008F0DBC08BE1289FC001112494
:100410008D5998419093B3018093B2018EE0289F4B
:10042000F0011124EF5CFC40F093B701E093B601BA
:1004300081E08EB980E881BB80917400E15BFE4F62
:10044000E80FF11D80818FB9779BFECF80917500F9
:10045000C091B601D091B701FE01E15BFE4FE80FFC
:10046000F11D80818FB9779BFECFFE01E15BFE4FCE
:1004700082AD8FB9779BFECF80917600FE01E15B64
:10048000FE4FE80FF11D80818FB9779BFECF8091E1
:100490007700FE01E15BFE4FE80FF11D80818FB90F
:1004A000779BFECFFE01E15BFE4F82AD8FB9779B5C
:1004B000FECF80917800FE01E15BFE4FE80FF11D59
:1004C00080818FB9779BFECF80917900FE01E15B3F
:1004D000FE4FE80FF11D80818FB9779BFECFA09171
:1004E000B201B091B301FD01EE52FF4F80818FB98F
:1004F000779BFECF1EB880918000AE56BF4FA80FED
:10050000B11D8C918FB9779BFECF80918100FE0148
:10051000E15BFE4FE80FF11D80818FB9779BFECF25
:1005200080918200FE01E15BFE4FE80FF11D8081AA
:100530008FB9779BFECF81E08EB9FE01E15BFE4F64
:1005400087A58FB9779BFECF1EB880918300FE01EF
:10055000E15BFE4FE80FF11D80818FB9779BFECFE5
:1005600080918400FE01E15BFE4FE80FF11D808168
:100570008FB9779BFECF81E08EB980918500FE0117
:10058000E15BFE4FE80FF11D80818FB9779BFECFB5
:100590001EB880918600FE01E15BFE4FE80FF11D61
:1005A00080818FB9779BFECF80918700C15BDE4F42
:1005B000C80FD11D88818FB9779BFECF11BA822FCA
:1005C000815F873008F0DBC08BE1289FC0011124D8
:1005D0008B5A99419093B3018093B2018EE0289F8A
:1005E000F0011124EB55FD40F093B701E093B60103
:1005F00081E08EB980E881BB80917A00E15BFE4F9B
:10060000E80FF11D80818FB9779BFECF80917B0031
:10061000A091B601B091B701FD01E15BFE4FE80F7B
:10062000F11D80818FB9779BFECFFD01E15BFE4F0D
:1006300085A58FB9779BFECF80917C00FD01E15BA2
:10064000FE4FE80FF11D80818FB9779BFECF80911F
:100650007D00FD01E15BFE4FE80FF11D80818FB948
:10066000779BFECFFD01E15BFE4F85A58FB9779BA0
:10067000FECF80917E00FD01E15BFE4FE80FF11D92
:1006800080818FB9779BFECF80917F00FD01E15B78
:10069000FE4FE80FF11D80818FB9779BFECFE0916F
:1006A000B201F091B301EE52FF4F80818FB9779B79
:1006B000FECF1EB880918900FD01E15BFE4FE80F7F
:1006C000F11D80818FB9779BFECF80918A00FD015B
:1006D000E15BFE4FE80FF11D80818FB9779BFECF64
:1006E00080918B00FD01E15BFE4FE80FF11D8081E1
:1006F0008FB9779BFECF81E08EB9FD01E15BFE4FA4
:1007000087A58FB9779BFECF1EB880918C00FD0125
:10071000E15BFE4FE80FF11D80818FB9779BFECF23
:1007200080918D00FD01E15BFE4FE80FF11D80819E
:100730008FB9779BFECF81E08EB980918E00FD014D
:10074000E15BFE4FE80FF11D80818FB9779BFECFF3
:100750001EB880918F00FD01E15BFE4FE80FF11D97
:1007600080818FB9779BFECF80919000A15BBE4FB7
:10077000A80FB11D8C918FB9779BFECF11BAFF9155
:10078000EF91DF91CF91BF91AF919F918F912F9179
:100790000F900FBE0F901F9018951F920F920FB6DB
:1007A0000F9211248F939F939091B4019F5F909328
:1007B000B40187E882BF9D3D10F08CEA82BF973E6E
:1007C00010F08FEA82BF913F10F089EB82BF88B7AB
:1007D000816088BF89B7816089BF9F918F910F9099
:1007E0000FBE0F901F9018951F920F920FB60F9289
:1007F00011241092B4010F900FBE0F901F90189506
:100800004E345458494042414C4C4F4F4E40313683
:100810003732383931343534343631323235303498
:1008200040333433352E36384E30383931382E3760
:100830003557FFE783C3878181C3BD8381BDBF7DFA
:100840007DC383C383C383BDBD7D7D7D01FFDBBDD0
:10085000BDBBBFBFBDBDEFF7BBBF393DBDBDBDBD5E
:10086000BDEFBDBD7DBBBBFBFFBDBDBFBDBFBFBF42
:10087000BDEFF7B7BF555DBDBDBDBDBFEFBDBD6D24
:10088000D7D7F7FFBD83BFBD8383B181EFF78FBF9C
:100890006D6DBD83BD83C3EFBDDB6DEFEFEFFF81FA
:1008A000BDBFBDBFBFBDBDEFF7B7BF7D75BDBFB39A
:1008B000B7FDEFBDDB6DD7EFDFFFBDBDBDBBBFBF7C
:1008C000BDBDEFB7BB817D79BDBFB9BBBDEFBDDBA2
:1008D00093BBEFBFFFBD83C38781BFC3BD83CFBDC4
:1008E000817D7DC3BFCDBDC3EFC3E7937DEF01FF26
:1008F000FFCF83EF8383E30183018383FFFFFFBB8C
:100900007DCF7D7DDB7F7FFD7D7DEFFFFFBB7DEFBD
:10091000FDFDBB7F7FFB7D7DFF83FFCF7DEFF3E39D
:100920007B8303F78381FFFFFFFF7DEFCFFD01FD99
:100930007DEF7DFBFFFFE7FF7DEFBF7DFB7D7DEF63
:100940007DF7EFFFE7FF83C70183FB8383EF83CF4F
:02095000FF00A6
:00000001FF
