:1000000017C1000031C100002FC100002DC1000048
:100010002BC1000029C1000027C1000025C100003C
:1000200023C1000021C1000017C200001DC1000053
:1000300000C20000FFC1000017C1000015C1000090
:1000400013C1000011C100000FC100000DC100006C
:100050000BC1000009C1000007C1000005C100007C
:1000600003C1000001C10000100019003300670047
:10007000CF004003040D00007F0398037F03980323
:100080007F0398037F0398037F03B9037F03B903BA
:100090007F03B9037F03B9035305B907B907B9074C
:1000A000B907B907B90782078B078307590AB90748
:1000B0009207510AB907B907BA07B907B907B907CB
:1000C000B907B907B907B907B207B907B907AB0745
:1000D000B907B907B907B90785084F0ADC07E3076D
:1000E000A207E908E908870883088C08AF08E9082F
:1000F000E908E908E908E9087D09E908EA07E908E3
:10010000E908E908E908E908EA07E908E908E90867
:10011000E908EA07EA07EA07E9080108E908E9083F
:1001200037083D08E908E908E90843085108BC0810
:10013000E908E908C608E908EA07EA07EA07E9085A
:10014000E908D008D608EA07EA07DC08E908230826
:10015000E908EA07E9084F4E004F46460050414C77
:10016000004155544F5F4352004155544F5F4C4638
:1001700000424C4F434B5F435552534F5200484946
:1001800044455F435552534F52004C494E455F4FD3
:10019000564552464C4F57004F7074696F6E733A14
:1001A00000307800554242520041637475616C2002
:1001B00042617564004A756D7065727300536572B3
:1001C00069616C3A2000312E312E30320056657252
:1001D00073696F6E3A2020003537363030202000AA
:1001E0003338343030202000313932303020200094
:1001F00039363030202020003438303020202000A4
:1002000031323030202020003330302020202000B8
:100210004175746F6261756400000802060A0E0081
:100220001020000000040200000810402080208000
:1002300011241FBECFEFD4E0DEBFCDBF11E0A0E0A0
:10024000B1E0EEE3F5E102C005900D92A830B107F0
:10025000D9F714E0A8E0B1E001C01D92AA3EB107B1
:10026000E1F703D00C949D0ACBCE84B7877F84BF7F
:1002700088E10FB6F89480936000109260000FBE82
:1002800017B88FEF88B98EE284B985E185B9C89532
:10029000C895C895000086B1869586958695809507
:1002A0008170349B886080931701359905C08091D7
:1002B000180180628093180186B1E82FF0E0E770A2
:1002C000F070EE0FFF1FE859FF4F85919491009752
:1002D00009F04EC08FEF9FEF9BBD8ABD8FEF86BDAB
:1002E000B1ECA2E6F1E6E5E774E664E72FE653E752
:1002F0004CE637E731C0B09381001EBA80916F00A1
:10030000816280936F0078948EB38830E8F3809197
:100310006F008E7D80936F0080918100887F809335
:1003200081008AB59BB58F5F9F4FB1F4A0931B01ED
:10033000F0931C01E0931D0170931E016093200156
:100340002093210120932201509324014093250101
:1003500020932601309327018AB59BB58F5F9F4F6D
:1003600051F28AB59BB524E0969587952A95E1F7D9
:100370008093C4009093C50080E18093C10086E023
:100380008093C20082EC8093800089E18093810099
:1003900010928500109284008091180185FF09C099
:1003A0008FEF93E0909387008093860087EB90E037
:1003B00008C087EF93E0909387008093860087EAD8
:1003C00090E090938B0080938A008AE490E0909371
:1003D00089008093880084E080936F00E1EDF4E071
:1003E000119284E0EA3EF807D9F71BBC1ABC1EBA8A
:1003F00016BC10BC10921601109285001092840059
:10040000789483B7817F83BF83B7816083BF199955
:10041000FECF8AB59BB501969BBD8ABDE0910201D6
:10042000F09103010995E0910001F0910101099516
:10043000EECF18951F920F920FB60F9211248F9343
:1004400086B58F3F19F086B58F5F86BD8F910F906F
:100450000FBE0F901F9018951F920F920FB60F921C
:1004600011242F933F934F935F938F939F934091CA
:100470008600509187008091810090E489278093C5
:10048000810086B58230C0F48091190190911A01E3
:100490008417950718F486B5882371F480911901A3
:1004A00090911A019A01281B390B8AB59BB5281720
:1004B000390710F43BBD2ABD8EB38F5F8EBB5093BE
:1004C0001A014093190116BC9F918F915F914F9132
:1004D0003F912F910F900FBE0F901F901895209174
:1004E0000901283009F04BC090910E01915081E034
:1004F0008DBD82E084B99923D9F190930E0150917A
:1005000008015F5F593108F050E0509308011092E4
:1005100009014091110140930C01842F82958F7045
:1005200029E0829FC001112420E03AE1380F467093
:10053000463009F43C5F30930A0180910F0190919D
:100540001001909301018093000110920B0186B578
:10055000581709F05BC08091180184FF57C080B51F
:10056000819590910D01891B8A5D80930B010895FF
:1005700087E093E09093010180930001089500C00B
:1005800081E08DBD82E084B980910C0181FD02C0C3
:1005900091E007C020FD02C091E001C092E082FF1F
:1005A0009F5F90FF05C080910A018F5F80930A01D1
:1005B000243089F0273001F1233029F5E09108013A
:1005C000EF5FE93108F0E0E0F0E0EF52FB4F8081AF
:1005D0008093110118C080911101E82FF0E0EF70B5
:1005E000F070EE0FFF1FE858FF4F859194919093A4
:1005F000100180930F0107C080910B01873218F022
:10060000895D80930B012F5F2093090108958AB5BE
:100610009BB5892F9927892B09F05CC0609118013F
:1006200065FD03C04EE150E002C044E350E02AB54E
:100630003BB5CA01019728173907C1F4809116010B
:100640008150809308018AE180930E0188E08093B5
:100650000901862F880F880B8093BA00862F8F5F41
:100660008F71607E862B8093180108958AB59BB5A3
:100670008417950779F5E0911601F0E0EF52FB4FF2
:10068000808180931101E82FF0E0EF70F070EE0FA1
:10069000FF1FE858FF4F859194919093100180932C
:1006A0000F0110920D0180911701982F81FF03C057
:1006B0008EE480930D0192FD05C080910D01895D4E
:1006C00080930D0184E58CBD96FF03C081E080938B
:1006D0000E0105CF8091180185FD03C025E031E0B2
:1006E00002C023E331E08AB59BB58217930731F44A
:1006F0008CE194E0909303018093020108951CBC67
:1007000084E58CBDC895C895C89500009091BA0045
:1007100086E232E02AE0C895C895C895992309F485
:1007200034B900009EBD24B98150A9F70000D7CE8E
:100730002091BA00A091080186E2A89FD00111245F
:10074000A55EBE4F50910B016AE072E080E096E238
:10075000F0910A01ED9104900226591709F40094D2
:1007600080FF74B9802D0EBC64B90000915091F7E0
:10077000B6CE1F938091080196E2899FD001112483
:10078000A55EBE4F50910A0140E090910B0160912F
:10079000BA001DBC8C91FA01E80F2491963209F43D
:1007A000209526272EBD8AE084B9392F345192E155
:1007B00012E07AE0C895C8950000915011968C918E
:1007C0001197FA01E80F8491391709F4809520FFF9
:1007D00014B9282F262700C02EBD74B90000119629
:1007E000992341F783E08A9501F0E9F7C89577DE10
:1007F0001F910895E0910401F09105010995E091A0
:100800000601F09107010995889508951F93182F07
:100810000FC0E0910401F09105010995E0910601F6
:10082000F09107010995199BFECF1999FECF115040
:10083000112379F71F9108951F93109118011072D9
:100840008091170185FF1BC0809180008F77809376
:10085000800029980BC0E0910401F09105010995F1
:10086000E0910601F09107010995889580911701A3
:1008700085FDF1CF80918000806C8093800084E2C0
:1008800090E0909389008093880081E0BFDF11237E
:1008900019F48BEF91E002C08FEF91E09093870005
:1008A0008093860085E0B2DF112319F48FEA91E08E
:1008B00002C083EB91E0909389008093880011231C
:1008C00011F486E001C085E0A1DF84E290E090931E
:1008D000890080938800112311F486E001C085E02F
:1008E00095DF8AE490E0909389008093880011233B
:1008F00019F48AE090E002C086E090E09BBD8ABDDA
:100900008AEF93E0909303018093020187E093E0E4
:10091000909301018093000181E078DF112319F4A5
:1009200087EF93E002C08FEF93E09093870080936E
:100930008600E0910401F09105010995E09106011E
:10094000F0910701099588951F910895DC01E4ED68
:10095000F4E0E61BF10909941D921D921D921D926F
:100960001D921D921D921D921D921D921D921D920F
:100970001D921D921D921D921D921D921D921D92FF
:100980001D921D921D921D921D921D921D921D92EF
:100990001D921D921D921D921D921D921D921D92DF
:1009A0001D921D921D921D9208958091C00087FF97
:1009B00015C08091C600882389F08EBB8EB380322B
:1009C00050F48EB3E82FF0E0EE0FFF1FE856FF4F14
:1009D0008591949105C08DE49AE002C083E595E08D
:1009E000909307018093060108958091C00087FFCE
:1009F00025C02091C6002EBB203250F48EB3E82FC4
:100A0000F0E0EE0FFF1FE856FF4F8591949118C05C
:100A100085ED94E09093050180930401822F815429
:100A20008F3348F4E82FF0E0EE0FFF1FE852FF4F3E
:100A30008591949105C089EE98E002C083E595E028
:100A4000909307018093060108958091C00087FF6D
:100A500012C08091C6008EBB803250F48EB3E82F56
:100A6000F0E0EE0FFF1FE856FF4F8591949105C00F
:100A70008AEE95E002C083E595E0909307018093AC
:100A8000060108958091C00087FF04C08091C600D0
:100A90008EBB08951EBA089585ED94E090930501EC
:100AA00080930401089586B5E82FF0E0EF52FB4FE4
:100AB00096B5808180FD2EC081E08083A6E29A9F5A
:100AC000D0011124A55EBE4F1D921D921D921D9254
:100AD0001D921D921D921D921D921D921D921D929E
:100AE0001D921D921D921D921D921D921D921D928E
:100AF0001D921D921D921D921D921D921D921D927E
:100B00001D921D921D921D921D921D921D921D926D
:100B10001D921D920895582F882311F439B109C0F0
:100B2000813011F43AB105C0823011F030E001C0DB
:100B30003BB1409115014423B1F49EB3909315014C
:100B4000892F8053853040F4943309F042C03295A8
:100B50003F70305E3093C60085ED94E090930501C0
:100B60008093040108952EB385ED94E090930501E0
:100B700080930401433398F4213311F480E10BC0D6
:100B8000223311F480E207C0233311F480E403C060
:100B90002433F9F480E8413379F020E003C0229552
:100BA000207F80EF423349F4832311F480E201C0B7
:100BB00081E28093C600089520EF982F90959323AB
:100BC0008223982B513011F49AB90895523009F4C8
:100BD0009BB9089580911401813709F48CC1823743
:100BE00088F4893511F18A3520F4833509F089C1FB
:100BF0003AC18F35D9F1803609F407C18E3509F035
:100C000080C19FC0883709F45CC0893738F48237C7
:100C100009F473C1833709F074C171C1893709F4CC
:100C20006DC08E3709F06DC1DBC08091150188233E
:100C300081F481E0809315019EB39052993108F0C0
:100C400060C180911601890F893108F0895186BDF4
:100C5000089585ED94E090930501809304018EB38F
:100C60008052863208F085E280BD089585ED94E0DB
:100C700090930501809304018EB38053863060F415
:100C8000E82FF0E0E75EFD4F9491E6B5F0E0EF521B
:100C9000FB4F8081817F0EC0893008F032C1E82F80
:100CA000F0E0E75EFD4F9491E6B5F0E0EF52FB4FC8
:100CB00080818F70E6B5F0E0EF52FB4F982B908368
:100CC000089585ED94E09093050180930401EEB3BF
:100CD000E153EC3040F4F0E0EE5DFD4FE4918091A3
:100CE00017018E2B1DC0EE3008F00BC1F0E0EE5D59
:100CF000FD4FE491809118018E2B20C085ED94E08A
:100D00009093050180930401EEB3E153EC3058F465
:100D1000F0E0EE5DFD4FE491E095809117018E23A8
:100D2000809317010895EE3008F0EBC0F0E0EE5D1F
:100D3000FD4FE491E095809118018E238093180176
:100D4000089585ED94E090930501809304018091CE
:100D50001501882309F0D5C08EB3843339F185336A
:100D600070F48133C9F1823320F4803309F0C9C0B3
:100D700010C08233C9F0833309F0C3C015C0863375
:100D800009F18633A8F0873349F1883309F0B9C0F7
:100D900067C096B5975E80911601981B993108F04F
:100DA00099519093C600089581E057C082E055C0E4
:100DB0008091180190E045E0969587954A95E1F776
:100DC00081704BC096B5975E80911601981B993142
:100DD00008F099519093C60080B53FC083E03DC0B4
:100DE0008EB38E3761F4809115018F5F809315016A
:100DF000833008F486C08091C100886003C0809170
:100E0000C100877F8093C1006FC02091150122230C
:100E1000B1F185ED94E090930501809304018091F8
:100E20001601820F282F2052293108F029518EB344
:100E30002931B0F4482F4052463290F430E086E237
:100E400090E0289FF001299FF00D389FF00D1124AC
:100E5000E40FF11DE55EFE4F80818093C60008958A
:100E60001092C60008959EB3892F80538A3018F0DF
:100E700097559031C8F520911501222321F48EB3A6
:100E800080931501089585ED94E09093050180937A
:100E90000401622F60536A3008F067528EB3582FF6
:100EA00050535A3008F0575290B5933050F546B52C
:100EB000475E80911601481B493108F0495149307D
:100EC00000F589E0989FC001112420E03AE1830FEA
:100ED000F82FF40FE0E06295607F560FE50FF11DEB
:100EE000E491E093C600089585ED94E090930501A8
:100EF00080930401089581E001C082E00CCE80E07F
:100F00000ACE0895089580B58C7F8C5F863208F0F4
:100F100085E280BD089580B5882319F080B58150A1
:100F200080BD089581ED94E069E110DD80911601A6
:100F3000885E86BD86B5893118F086B5895186BD33
:100F400010BC089581ED94E069E100DD1092160176
:100F500010BC16BC089585EF94E090930501809332
:100F60000401089585ED94E09093050180930401B8
:100F700008950895809104019091050124E0853D34
:100F8000920719F482E49AE00CC024E0853F9207AE
:100F900019F487E39AE005C08552954061F48CE22C
:100FA0009AE0909307018093060182E495E0909384
:100FB000050180930401089580B5853218F480B549
:100FC0008F5F80BD089580B5882319F080B581506A
:100FD00080BD089585E295E090930501809304011A
:100FE0008EB38093140110921501089586B58F5F1A
:100FF00086BDE0910601F0910701099582E080BD70
:10100000089586EC98E090930701809306018CE4A4
:1010100095E0909305018093040186B52091160117
:10102000821750F466B581ED94E090DC20911601B2
:10103000822F90E069E103C066B5822F90E0621BC9
:101040008F529B4F83CC86B540B590E026E230E0CE
:10105000829FF001839FF00D929FF00D1124E40F09
:10106000F11DE55EFE4F80818093C600089580915A
:1010700017018D7F80931701089580911701826079
:1010800080931701089596B5975E80911601981B7D
:10109000993108F099519093120180B58093130112
:1010A00008959091160180911201980F993108F0DE
:1010B000995196BD8091130180BD0895282F96B552
:1010C000809116019817A9F42223E1F0992321F4C5
:1010D00088E18093160111C0892F815080931601F9
:1010E00086BDE6B5F0E0EF52FB4F80818E7F8083B6
:1010F000089586B5882319F488E186BD089586B5DC
:10110000815086BD089581E0D9CF80E0D7CF10BC53
:101110008091160186BD08958FEA98E090930701AB
:10112000809306018CE495E090930501809304017F
:1011300086B520911601821730F486B566B590E029
:101140006095620F09C081ED94E0622FFFDB86B5E8
:1011500066B590E06095675E8E529B4FF7CB86B583
:1011600020B530B566E2869FC0011124820F911D23
:10117000631B855E9E4FEACB86B5E1EDF4E0E80F98
:10118000F11D80818E7F808310BC089586B560B587
:1011900026E2829FC00111246F5F855E9E4FD6CBF1
:1011A0008091170181608093170108958091170144
:1011B0008E7F809317010895F89428E088E190E0ED
:1011C0000FB6F894A895809360000FBE209360003E
:1011D000FFCF08958823E1F086B58F5F86BD86B581
:1011E000893108F016BC96B580911601981719F54B
:1011F000892F8F5F80931601893110F010921601AC
:10120000E6B5F0E0EF52FB4F80818E7F808308953A
:1012100080911601882311F498E102C0982F915013
:1012200086B5891741F086B5883111F416BC08954A
:1012300086B58F5F86BD089526B540B55EB330E0B4
:1012400086E290E0289FF001299FF00D389FF00D75
:101250001124E40FF11DE55EFE4F508390911701BC
:1012600097FF02C080E0B6CF80B5853220F480B50C
:101270008F5F80BD089590FF03C010BC81E0AACFAE
:1012800008951F93182F82958F708A3010F0895A15
:1012900001C0805D8EBBD0DF812F8F708A3010F04F
:1012A000895A01C0805D8EBBC7DF1F910895CF931F
:1012B000DF93FC01EC01849103C0BEDFFE01849149
:1012C0008EBB8EB321968823C1F7DF91CF9108950D
:1012D00090E190BD882319F086E591E002C089E590
:1012E00091E0E5DF86B58F5F86BD82E080BDE0914D
:1012F0000601F091070109950895EF92FF920F936F
:101300001F9383E595E090930701809306011ADE11
:10131000E0910601F091070109958DEC91E0C7DF9E
:1013200086EC91E0C4DF62DE61DE10BC8DEB91E003
:10133000BEDF5CDE85EB91E0BADF80E180BD86B187
:1013400090E08770907053E0880F991F5A95E1F7ED
:1013500088529E4FACDF4ADE89EA91E0A8DF6091B7
:10136000C5002091C40030E02F5F3F4F962F80E0F2
:10137000280F391F442737FD4095542F60E472E44D
:101380008FE090E0BFD0C901DA017C018D0184E1DA
:1013900080BDC801B7012AE030E040E050E090D0C5
:1013A000605D6EBB49DF80B5825080BDC801B7016A
:1013B0002AE030E040E050E083D0C901DA017C014E
:1013C0008D01E114F1040105110519F70FDE84EA1E
:1013D00091E06DDF80E180BD81EA91E068DF80917E
:1013E000C5004FDF8091C4004CDF00DEFFDD10BC84
:1013F00088E991E05CDFFADD8AE891E058DF8091CE
:101400001701817065DF8EE791E051DF8091170150
:1014100082705EDF81E791E04ADF8091170184707E
:1014200057DF89E691E043DF80911701887050DF34
:1014300081E691E03CDF80911701807149DF8DE505
:1014400091E035DF80911801807242DF10BC1F915E
:101450000F91FF90EF9008958EB3882339F0ECDE62
:1014600085E295E0909305018093040108958EB381
:10147000882339F0E1DE85EF94E0909305018093B5
:10148000040108958EB3882339F0D6DE85ED94E00B
:1014900090930501809304010895CECE089580E0D5
:1014A00099CE10BC8091170183FF02C081E092CEDB
:1014B000089581E08FDE8091170184FD10BC0895AE
:1014C000A1E21A2EAA1BBB1BFD010DC0AA1FBB1F48
:1014D000EE1FFF1FA217B307E407F50720F0A21BBA
:1014E000B30BE40BF50B661F771F881F991F1A9427
:1014F00069F760957095809590959B01AC01BD0151
:10150000CF01089597FB092E05260ED057FD04D074
:10151000D7DF0AD0001C38F45095409530952195BE
:101520003F4F4F4F5F4F0895F6F790958095709518
:0E15300061957F4F8F4F9F4F0895F894FFCF26
:08153E000703FA03D50453056D
:101A00000038380010101000FF00FF0E380002549C
:101A1000800210007C38001010100000400010FE02
:101A200000186C6C1860700C0C3000000000000096
:101A30003C183C3C0C7E1C7E3C3C00000C00303CC6
:101A40003C3C7C3C787E7E3C667E3E6660C6663C66
:101A50007C3C7C3C7E6666C666667E7C003E1800EA
:101A60003000600006001C0060181860380000009C
:101A700000000000300000000000000C1830620080
:101A800078000E7E667018007E6670667C70C618E0
:101A90000E007E3800003C0000C666181CCCF00C1E
:101AA0001C1C0000007E3C381800008686180000D0
:101AB00060CCF31818183600003636003636180099
:101AC0001818001800181836360036003600361878
:101AD0003600003618000036181800FF00F00FFF1F
:101AE000000000007E000000FC38381C00061C3C92
:101AF0000018300C0C1818003800000F7870000027
:101B000000447C6C3838103CC33CC306440C0E388F
:101B1000E00E3844F4440038381008204028107C87
:101B200000186C6C7E66D81818181818000000068B
:101B3000663866661C603006666600001800186627
:101B4000666666666C60606666180C6C60EE66665B
:101B500066666666186666C66666066060063C006F
:101B600018006000060030006000006018000000EF
:101B70000000000030000000000000181818D61007
:101B8000CC6600C300001800C3000000C6000018A7
:101B90000000D866667066706618001836CCD81AD1
:101BA00000000E0E7C006C6C0000008C8C1836D887
:101BB00001CC9F181818360000363600363618004B
:101BC0001818001800181836360036003600361877
:101BD0003600003618000036181800FF00F00FFF1E
:101BE000003C7EFE66006676306C6C30000C306621
:101BF0007E1818181A1818766C00000C6C18000063
:101C000000AAD6FE7C38387E8142BD0A440E3E448E
:101C1000F83E7CEEF4707E7C7C100C60406C387C6E
:101C200000186CFED00CD830300C7E180000000C70
:101C30006E1806063C7C600C66661818307E0C0C2C
:101C40006E6666606660606066180C7860FE766638
:101C500066666660186666C63C660C60300666009E
:101C60000C3C7C3C3E3C303E7C383866186C7C3CFE
:101C70007C7C6C3E7C6666C666667E1818188C385E
:101C8000C0003C3C3C3C3C3C3C3C3C3838383C0094
:101C90003E7ED80000000000003C667E3078D818F8
:101CA0007838000000666C6C1800009898006C6C26
:101CB0000C33FE1818183600003636003636180079
:101CC0001818001800181836360036003600361876
:101CD0003600003618000036181800FF00F00FFF1D
:101CE0007666666C303E66DC78C6C6186C7E6066CA
:101CF000007E0C301A1800DC6C00000C6C303C00CC
:101D00000082FEFEFE547C7E8142BD70440A32C6D3
:101D1000FEFE10EEF4287E101010FEFE40FE383855
:101D20000018006C7C187000300C3C7E007E00189F
:101D30007E180C1C6C067C183C3E181860000618B7
:101D40006A7E7C60667C7C6E7E180C7060D67E66D7
:101D50007C667C3C186666D6183C18601806420003
:101D60000006666666667C666618186C18FE66660F
:101D700066CC7660306666D63C660C70000E006CF1
:101D8000CC66660606060660666666181818663C27
:101D90003018FC3C3C3C6666666666C07CFCF43CE5
:101DA0000C183C667C763C38307E7EB4B618D8364B
:101DB0006033F31818F83600F8F636FEF636F800F9
:101DC0001818001800181F36373FF7FF37FFF7FFC6
:101DD00036FF00361F1F0036FF1800FF00F00FFF10
:101DE000DC7C606C186C6618CCFEC67CD6DB7C662E
:101DF0007E18181818187E003818000C6C603C000B
:101E000000AAD6FE7CFEFE7E8142BD8838082644AC
:101E1000F83E1044741C7E1010100C607C6C7C38F2
:101E2000001800FE1630DA00300C7E18000000307A
:101E3000761818067E06663066060000307E0C189E
:101E40006E6666606660606666180C7860D66E6660
:101E5000606A6C06186666FE3C1830600C0600006E
:101E6000003E6660667E30666618187818D666662C
:101E700066CC603C306666D618661818181800C61E
:101E800078667E3E3E3E3E607E7E7E1818187E66F8
:101E90003C7CD86666666666666666C03030C41886
:101EA0007C186666667E0000606006626A186C6C6C
:101EB00001CC9F18F818F6FE1806360606FE18F82C
:101EC0001FFFFF1FFFFF18373030000030000000F9
:101ED000FF00FF3F18183FFF18F81FFFFFF00F002B
:101EE000C866606C306C6618CCC66CCCD6DB60669D
:101EF0000018300C18180076001818EC6C783C00AC
:101F00000092EE7C38FEFE7E8142BD8810386E382D
:101F1000E00E7C441444007C107C082000287C10D7
:101F20000000006CFC66CC00181818181800186027
:101F3000661830660C666630660C181818001800B3
:101F4000606666666C60606666186C6C60C6666625
:101F5000606C666618663CEE6618606006060000F7
:101F6000006666666660303E6618186C18D666664F
:101F70007C7C600630663CFE3C3E3018181800C67B
:101F80001866606666666660606060181818667E2F
:101F900030D8D866666666663E3C667E30FCCE18F3
:101FA000CC186666666E7E7C666006C4D21836D82B
:101FB0000CCCFE1818F83636F8F636F6FE00F8188F
:101FC0000000181800181F363F37FFF737FFF7FFDC
:101FD00000FF36001F1F3636FF0018FFFFF00F000E
:101FE000DC7C606C666C6618786C6CCC6C7E3066E1
:101FF0007E00000018D818DC0000006C00003C00D7
:1020000000447C381054543CC33CC3883878E454B2
:102010008002380014380038103800000000FE102C
:102020000018006C300676000C3000001800180014
:102030003C7E7E3C0C3C3C303C3818180C00301880
:102040003C667C3C787E603C667E38667EC6663C3C
:102050006036663C183C18C666187E7C003E000060
:10206000003E7C3C3E3C3006663C18663CC6663C06
:10207000600C607C1C3E186C66067E0C183000FEFE
:102080000C3E3C3E3E3E3E3C3C3C3C3C3C3C666662
:102090003E7EDE3C3C3C3E3E06183C187E30C4187A
:1020A0007C3C3C3E666600003C0000089E18000038
:1020B0006033F31818183636183636360000001814
:1020C00000001818001818360036003636003600A2
:1020D0000018360000183636180018FFFFF00F0001
:1020E0007660606C7E387C183038EE7800601C6654
:1020F000007E7E7E18D818000000003C0000000022
:102100000038381000101000FF00FF701030400041
:102110000000104414000010101000000000000027
:10212000000000000000000000000000300000007F
:10213000000000000000000000000030000000006F
:10214000000000000000000000000000000000008F
:10215000000000000000000000000000000000FF80
:10216000000000000000003C0000700000000000C3
:10217000600E000000000000003C000000000000B5
:1021800078000000000000080000000000000000CF
:1021900000000000000000003C0000180030C2D821
:1021A00000000000000000000000000E020000001F
:1021B00001339F18181836361836363600000018C6
:1021C00000001818001818360036003636003600A1
:1021D0000018360000183636180018FFFFF00F0000
:1021E0000060000000004000FC00000000C0000093
:1021F00000000000185000000000001C000000005B
:102200000000000000000000FF00FF0000000000D0
:1022100000000000000000000000000000000000BE
:1022200000000000000000000000000000000000AE
:10223000000000000000000000000000000000009E
:10224000000000000000000000000000000000008E
:10225000000000000000000000000000000000007E
:10226000000000000000000000000000000000006E
:10227000000000000000000000000000000000005E
:10228000000000000000003000000000000000001E
:1022900000000000000000000000000000000070CE
:1022A000000000000000000000000000020000002C
:1022B0000C33FE181818363618363636000000185B
:1022C00000001818001818360036003636003600A0
:1022D0000018360000183636180018FFFFF00F00FF
:1022E000006000000000800000000000000000000E
:1022F00000000000187000000000000C000000004A
:102300000000800C6CD3F3F7000000000000007E9A
:102310007E7E7E7E7E7E7E7E0000000000000000CD
:1023200000186C6C1860700C0C300000000000008D
:102330003C183C3C0C7E1C7E3C3C00000C00303CBD
:102340003C3C7C3C787E7E3C667E3E6660C6663C5D
:102350007C3C7C3C7E6666C666667E7CE03E1C03FA
:102360000000600006001C006018186038000000C3
:10237000000000003000000000000000000000002D
:1023800018180018180018001800180000000000A5
:1023900000000000000000000000402010080402BF
:1023A00080C0E0F0F8FCFEFF7F3F1F0F070301FF36
:1023B000FFFFFFFFFFFFFFFF000000000000000025
:1023C00000F00FFF00F00FFF00F00FFF00F00FFF15
:1023D00000F00FFF00F00FFF00F00FFF00F00FFF05
:1023E00000F00FFF00F00FFF00F00FFF00F00FFFF5
:1023F00000F00FFF00F00FFF00F00FFF00F00FFFE5
:10240000004010C0952E3F7FFF000000000000003C
:102410007E7E7E7E7E7E7E7E7E000000000000004E
:1024200000186C6C7E66D818181818180000000682
:10243000663866661C60300666660000180018661E
:10244000666666666C60606666180C6C60EE666652
:1024500066666666186666C666660660E0061C0303
:1024600000006000060030006000006018000000FE
:10247000000000003000000000000000000000002C
:10248000181800181800180018001880C0E0F0F89C
:10249000FCFEFF7F3F1F0F070301402010080402CE
:1024A00080C0E0F0F8FCFEFF7F3F1F0F0703010034
:1024B000FFFFFFFFFFFFFFFFFF0000000000000025
:1024C00000F00FFF00F00FFF00F00FFF00F00FFF14
:1024D00000F00FFF00F00FFF00F00FFF00F00FFF04
:1024E00000F00FFF00F00FFF00F00FFF00F00FFFF4
:1024F00000F00FFF00F00FFF00F00FFF00F00FFFE4
:102500000000401436EBEBFF00FF0000000000006D
:10251000007E7E7E7E7E7E7E7E7E0000000000004D
:1025200000186CFED00CD830300C7E180000000C67
:102530006E1806063C7C600C66661818307E0C0C23
:102540006E6666606660606066180C7860FE76662F
:1025500066666660186666C63C660C60E0061C032C
:10256000003C7C3C3E3C303E7C383866186C7C3C01
:102570007C7C6C3E7C6666C666667E000000000061
:10258000181800181800180018001880C0E0F0F89B
:10259000FCFEFF7F3F1F0F070301402010080402CD
:1025A00080C0E0F0F8FCFEFF7F3F1F0F0703010033
:1025B00000FFFFFFFFFFFFFFFFFF00000000000024
:1025C00000F00FFF00F00FFF00F00FFF00F00FFF13
:1025D00000F00FFF00F00FFF00F00FFF00F00FFF03
:1025E00000F00FFF00F00FFF00F00FFF00F00FFFF3
:1025F00000F00FFF00F00FFF00F00FFF00F00FFFE3
:102600000008024169BFBEFD0000FF00000000009D
:1026100000007E7E7E7E7E7E7E7E7E00000000004C
:102620000018006C7C187000300C3C7E007E001896
:102630007E180C1C6C067C183C3E181860000618AE
:102640006A7E7C60667C7C6E7E180C7060D67E66CE
:102650007C667C3C186666D6183C18600006000054
:10266000E006666666667C666618186C18FE666626
:1026700066CC7660306666D63C660C1C03000000B3
:10268000181800181800180018001880C0E0F0F89A
:10269000FCFEFF7F3F1F0F070301402010080402CC
:1026A00080C0E0F0F8FCFEFF7F3F1F0F0703010032
:1026B0000000FFFFFFFFFFFFFFFFFF000000000023
:1026C00000000000F0F0F0F00F0F0F0FFFFFFFFF12
:1026D00000000000F0F0F0F00F0F0F0FFFFFFFFF02
:1026E00000000000F0F0F0F00F0F0F0FFFFFFFFFF2
:1026F00000000000F0F0F0F00F0F0F0FFFFFFFFFE2
:10270000000008189A65E7EF000000FF00000000D5
:102710000000007E7E7E7E7E7E7E7E7E000000004B
:10272000001800FE1630DA00300C7E180000003071
:10273000761818067E06663066060000307E0C1895
:102740006E6666606660606666180C7860D66E6657
:10275000606A6C06186666FE3C1830600006000071
:10276000E03E6660667E30666618187818D6666643
:1027700066CC603C306666D61866181C0300000004
:102780001F181F1FF8FFFFF8F8FFFF80C0E0F0F8E8
:10279000FCFEFF7F3F1F0F070301402010080402CB
:1027A00080C0E0F0F8FCFEFF7F3F1F0F0703010031
:1027B000000000FFFFFFFFFFFFFFFFFF0000000022
:1027C00000000000F0F0F0F00F0F0F0FFFFFFFFF11
:1027D00000000000F0F0F0F00F0F0F0FFFFFFFFF01
:1027E00000000000F0F0F0F00F0F0F0FFFFFFFFFF1
:1027F00000000000F0F0F0F00F0F0F0FFFFFFFFFE1
:1028000000000040699EBFFF00000000FF000000C4
:10281000000000007E7E7E7E7E7E7E7E7E0000004A
:102820000000006CFC66CC0018181818180018601E
:10283000661830660C666630660C181818001800AA
:10284000606666666C60606666186C6C60C666661C
:10285000606C666618663CEE6618606000060000F4
:10286000E06666666660303E6618186C18D6666666
:102870007C7C600630663CFE3C3E301C0300000061
:10288000001818180000001818181880C0E0F0F898
:10289000FCFEFF7F3F1F0F070301402010080402CA
:1028A00080C0E0F0F8FCFEFF7F3F1F0F0703010030
:1028B00000000000FFFFFFFFFFFFFFFFFF00000021
:1028C00000000000F0F0F0F00F0F0F0FFFFFFFFF10
:1028D00000000000F0F0F0F00F0F0F0FFFFFFFFF00
:1028E00000000000F0F0F0F00F0F0F0FFFFFFFFFF0
:1028F00000000000F0F0F0F00F0F0F0FFFFFFFFFE0
:102900000020820616E9F9FB0000000000FF00002D
:1029100000000000007E7E7E7E7E7E7E7E7E000049
:102920000018006C300676000C300000180018000B
:102930003C7E7E3C0C3C3C303C3818180C00301877
:102940003C667C3C787E603C667E38667EC6663C33
:102950006036663C183C18C666187E7C003E000057
:10296000003E7C3C3E3C3006663C18663CC6663CFD
:10297000600C607C1C3E186C66067E0000E01C0348
:10298000001818180000001818181880C0E0F0F897
:10299000FCFEFF7F3F1F0F070301402010080402C9
:1029A00080C0E0F0F8FCFEFF7F3F1F0F070301002F
:1029B0000000000000FFFFFFFFFFFFFFFFFF000020
:1029C0000000000000000000000000000000000007
:1029D000F0F0F0F0F0F0F0F0F0F0F0F0F0F0F0F0F7
:1029E0000F0F0F0F0F0F0F0F0F0F0F0F0F0F0F0FF7
:1029F000FFFFFFFFFFFFFFFFFFFFFFFFFFFFFFFFE7
:102A00000002106169969EBF000000000000FF00F8
:102A10000000000000007E7E7E7E7E7E7E7E7E0048
:102A20000000000000000000000000003000000076
:102A30000000000000000000000000300000000066
:102A40000000000000000000000000000000000086
:102A50000000000000000000000000000000000076
:102A6000000000000000003C0000700000000000BA
:102A7000600E000000000000003C000000E01C03AD
:102A8000001818180000001818181880C0E0F0F896
:102A9000FCFEFF7F3F1F0F070301402010080402C8
:102AA00080C0E0F0F8FCFEFF7F3F1F0F070301002E
:102AB000000000000000FFFFFFFFFFFFFFFFFF001F
:102AC0000000000000000000000000000000000006
:102AD000F0F0F0F0F0F0F0F0F0F0F0F0F0F0F0F0F6
:102AE0000F0F0F0F0F0F0F0F0F0F0F0F0F0F0F0FF6
:102AF000FFFFFFFFFFFFFFFFFFFFFFFFFFFFFFFFE6
:102B0000000000009A7BFFFF0000000000000000B2
:102B1000000000000000007E7E7E7E7E7E7E7E7E47
:102B200000000000000000000000000000000000A5
:102B30000000000000000000000000000000000095
:102B40000000000000000000000000000000000085
:102B50000000000000000000000000000000000075
:102B60000000000000000000000000000000000065
:102B700000000000000000000000000000E01C0356
:102B8000001818180000001818181800000000009D
:102B900000000000000000000000402010080402B7
:102BA00080C0E0F0F8FCFEFF7F3F1F0F070301002D
:102BB00000000000000000FFFFFFFFFFFFFFFFFF1E
:102BC0000000000000000000000000000000000005
:102BD000F0F0F0F0F0F0F0F0F0F0F0F0F0F0F0F0F5
:102BE0000F0F0F0F0F0F0F0F0F0F0F0F0F0F0F0FF5
:102BF000FFFFFFFFFFFFFFFFFFFFFFFFFFFFFFFFE5
:102C00000000101010FF80FF00FFFFFFFFFFFFFF1D
:102C100000FE00FE10000000000000101C0038380C
:102C200000186C6C1860700C0C3000000000000084
:102C30003C183C3C0C7E1C7E3C3C00000C00303CB4
:102C40003C3C7C3C787E7E3C667E3E6660C6663C54
:102C50007C3C7C3C7E6666C666667E1C10444400F6
:102C60000000600006001C006018186038000000BA
:102C70000000000030000000000000003C180428A4
:102C8000181800181800180018001860001C00061A
:102C900000380010103C3C10381410000030005078
:102CA000046008283838380038383838381000447C
:102CB000007C7C080842008200C006000000000082
:102CC0000000000000007FFCFF783E00FF00FF00D6
:102CD0000101001C1C001C1C001C001C001C1C0012
:102CE00000003E3E003E3E003E003E003E3E0000F4
:102CF00000222200222200220022002222000000C4
:102D0000006C3838107FC0FE01E3FFFFF7FF81FF42
:102D100038C638C642383810404040102238263E67
:102D200000186C6C7E66D818181818180000000679
:102D3000663866661C603006666600001800186615
:102D4000666666666C60606666180C6C60EE666649
:102D500066666666186666C66666063E38AA280314
:102D6000C000600006003000600000601800000035
:102D700000000000300000000000007C42142C78AD
:102D80001818001818001800180018780E1C001EDB
:102D90000038F004047E7E10545438300000008067
:102DA0001A68166C7C7C7C447C7C7C7C7C100044A7
:102DB00000FEFE1C1C5A4254D6C006B83A38000029
:102DC00000000000000092929E482200FF00FF00D9
:102DD0000301801C1C001C1C001C001C001C1C008F
:102DE00000003E3E003E3E007E007E007E3E000033
:102DF00000222200226200620062006222000000C3
:102E000000FE7C38383FE0FE03D5F7F7E3C9BDFF8D
:102E10007CBA448218747010000000282244213FBC
:102E200000186CFED00CD830300C7E180000000C5E
:102E30006E1806063C7C600C66661818307E0C0C1A
:102E40006E6666606660606066180C7860FE766626
:102E500066666660186666C63C660C2A28FE7C3F7D
:102E6000FC3C7C3C3E3C303E7C383866186C7C3CFC
:102E70007C7C6C3E7C6666C666667E6C56143878D2
:102E800018180018180018001800187CDE1C003EE6
:102E90000038FB08086A6A28AA543C2016201A68E1
:102EA000188006EEEEFEEEC6DEFEF6FEFE54FE7C5A
:102EB0003FFEFEC9087E5A383856D4A82A7CE00363
:102EC0007F0003E0FE00929292482200FF00FFC0C4
:102ED0000707C01E1C001E3C003E003C003E1C00BC
:102EE00008003F3E1F3FFEFFFFFCFEFFFF3E1F1C92
:102EF000FC21221F21C2FFC1FCC2FFC1221F1CFCFA
:102F000000FEFE547C1FF0FC07FFE3E3C1C9BDFFD8
:102F1000FE7C82003CF0E0D6000000441CA2263E6D
:102F20000018006C7C187000300C3C7E007E00188D
:102F30007E180C1C6C067C183C3E181860000618A5
:102F40006A7E7C60667C7C6E7E180C7060D67E66C5
:102F50007C667C3C186666D6183C183E38D6D66D22
:102F6000B606666666667C666618186C18FE666647
:102F700066CC7660306666D63C660C446C381C289D
:102F800018180018180018001800187CFC383C3E6F
:102F9000381C7F1A1A7E7E38D63C3C0012301260F4
:102FA000025010AEFEFEFEE6F8FE3ED6D67C3C7C1D
:102FB0001ED6D6FF3E183C92103EF8FEFE7C900EC8
:102FC000FF000538FF00FFFEF37EFE00FF00FFE07C
:102FD0001E0EF01F1C0F1FFCFFFFF8FCFFFF1C1F45
:102FE0001CFC3F3E3F3FFEFFFFFEFEFFFF3E3F3E1D
:102FF000FE202230200200000202000022303606AD
:1030000000FE7CFEFE0FF8F80FD5F7E3C1FFBDFF11
:10301000FE7C8200BDE0E07C000000A208D23838CF
:10302000001800FE1630DA00300C7E180000003068
:10303000761818067E06663066060000307E0C188C
:103040006E6666606660606666180C7860D66E664E
:10305000606A6C06186666FE3C18301428FEFE7F17
:10306000FE3E6660667E30666618187818D666661C
:1030700066CC603C306666D61866186C541034080E
:103080001F181F1FF8FFFFF8F8FFFF3CFC3C7F3CB8
:10309000FC3C7F70707E7E6CAABDBC3000060000D8
:1030A000480024FEF0FE1EAEE0AE0EFEFE7C3F7C2D
:1030B000FEEEEE3EFF18186C6C18303AB854881EBD
:1030C000FF00093CFF00CFE6F366E600FF00E740A3
:1030D0000705C01F1C1F1FFCFFFFFCFCFFFF1C3F60
:1030E0001CFE3F3E3F3FFEFFFFFEFEFFFF3E3F3E1A
:1030F000FE202220200200000202000022202202E4
:10310000007C38FEFE07FCF01FFFF7E3C1C9B5FFE6
:10311000FE7C82003CE0E0380000008208A2202013
:103120000000006CFC66CC00181818181800186015
:10313000661830660C666630660C181818001800A1
:10314000606666666C60606666186C6C60C6666613
:10315000606C666618663CEE661860DD387CFE3F83
:10316000FC6666666660303E6618186C18D6666641
:103170007C7C600630663CFE3C3E307C6C10200857
:1031800000181818000000181818181C383E7F384E
:10319000FC7C3CD8D83E3E54547FBC069000901432
:1031A000100C80FEFEAEFEFEF0E61EEE827C3C7C45
:1031B0001E7C7C1CDD247E10921EF03AB854FF1F4A
:1031C000FFFFFFFCFFFEB7DAF3DADBFFFFDBDB60BC
:1031D000190D300F1C1F1FF8FFFFFCFCFFFF1C1F09
:1031E0001CFC3F3E3F3FFEFFFFFEFEFFFF3E3F3E1B
:1031F000FE302220200600000202000036302206A7
:10320000003810545403FEE03FD5FFE3C1C9BDFFB1
:103210007CBA44821874707C0000008238822020BE
:103220000018006C300676000C3000001800180002
:103230003C7E7E3C0C3C3C303C3818180C0030186E
:103240003C667C3C787E603C667E38667EC6663C2A
:103250006036663C183C18C666187E227C28AA0C8C
:10326000303E7C3C3E3C3006663C18663CC6663CC4
:10327000600C607C1C3E186C66067E38FC10600892
:10328000001818180000001818181838003EFB1C09
:10329000DE7C00B8B83C3CAA287EFC02B002D0021A
:1032A000C02C30FEFEEEFEFEFEC6FEFEC67CFE54C8
:1032B0003F007C0808244254387EFC682C44F333D9
:1032C000CFCFE7E6F3E67BBCFFBCBDFFFFBDBD9003
:1032D0002F13E8001C1E1E0000003C3C3E3E080070
:1032E0001C001F3E3F3FFCFFFFFEFEFFFF1C1F3E7A
:1032F000FC1F222121FCFFFFC2C2C1C11C1F22FCF6
:10330000001000101001FEC07FFFFFFFC1FFA5FFEE
:1033100038C638C6423838D6000000440844202059
:10332000000000000000000000000000300000006D
:10333000000000000000000000000030000000005D
:10334000000000000000000000000000000000007D
:1033500000000000000000000000001C6C44441845
:10336000180000000000003C000070000000000099
:10337000600E000000000000003C00108C10C0082F
:10338000001818180000001818181838001EF01C33
:103390000E7800F8F83870FE103E7C000006002C15
:1033A000D002B07C7C6C7C7C7C447CFEFE440010B3
:1033B000007C38080824248244D0166C6C44ED2D1F
:1033C000B7B7DBDAEDDA783C003C3C00003C3C90DF
:1033D000241248001C1C1C0000001C1C1C1C0000AB
:1033E0001C00003E3E3E0000007E7E7E7E00003ED1
:1033F00000002222220000006262626200002200BD
:10340000000000000000FF80FFD5FFFFC1FFBDFFEF
:1034100000FE00FE100000100000003838382020A8
:10342000000000000000000000000000000000009C
:10343000000000000000000000000000000000008C
:10344000000000000000000000000000000000007C
:103450000000000000000000000000E34400000045
:10346000000000000000000000000000000000005C
:10347000000000000000000000000000781080083C
:103480000018181800000018181818380006001C3A
:10349000006000707060C010103C38060000000C26
:1034A0002014403838283838380038AAAA44001088
:1034B000003800080866668282CC660C60000C0C3E
:1034C000303018180C183018001818000018186040
:1034D000180C30001C1C1C0000001C1C1C1C0000D4
:1034E0001C00003E3E3E0000003E3E3E3E00003ED0
:1034F00000002222220000002222222200002200BC
:00000001FF
